{
    "_format": "hh-sol-artifact-1",
    "contractName": "WavePortal",
    "sourceName": "contracts/WavePortal.sol",
    "abi": [
        {
            "inputs": [],
            "stateMutability": "payable",
            "type": "constructor"
        },
        {
            "anonymous": false,
            "inputs": [
                {
                    "indexed": true,
                    "internalType": "address",
                    "name": "from",
                    "type": "address"
                },
                {
                    "indexed": false,
                    "internalType": "uint256",
                    "name": "timestamp",
                    "type": "uint256"
                },
                {
                    "indexed": false,
                    "internalType": "string",
                    "name": "message",
                    "type": "string"
                }
            ],
            "name": "NewWave",
            "type": "event"
        },
        {
            "inputs": [],
            "name": "getAllWaves",
            "outputs": [
                {
                    "components": [
                        {
                            "internalType": "address",
                            "name": "waver",
                            "type": "address"
                        },
                        {
                            "internalType": "string",
                            "name": "message",
                            "type": "string"
                        },
                        {
                            "internalType": "uint256",
                            "name": "timestamp",
                            "type": "uint256"
                        }
                    ],
                    "internalType": "struct WavePortal.Wave[]",
                    "name": "",
                    "type": "tuple[]"
                }
            ],
            "stateMutability": "view",
            "type": "function"
        },
        {
            "inputs": [],
            "name": "getTotalWaves",
            "outputs": [
                {
                    "internalType": "uint256",
                    "name": "",
                    "type": "uint256"
                }
            ],
            "stateMutability": "view",
            "type": "function"
        },
        {
            "inputs": [
                {
                    "internalType": "address",
                    "name": "",
                    "type": "address"
                }
            ],
            "name": "lastWavedAt",
            "outputs": [
                {
                    "internalType": "uint256",
                    "name": "",
                    "type": "uint256"
                }
            ],
            "stateMutability": "view",
            "type": "function"
        },
        {
            "inputs": [
                {
                    "internalType": "string",
                    "name": "_username",
                    "type": "string"
                }
            ],
            "name": "setUsername",
            "outputs": [],
            "stateMutability": "nonpayable",
            "type": "function"
        },
        {
            "inputs": [
                {
                    "internalType": "address",
                    "name": "",
                    "type": "address"
                }
            ],
            "name": "username",
            "outputs": [
                {
                    "internalType": "string",
                    "name": "",
                    "type": "string"
                }
            ],
            "stateMutability": "view",
            "type": "function"
        },
        {
            "inputs": [
                {
                    "internalType": "string",
                    "name": "_message",
                    "type": "string"
                }
            ],
            "name": "wave",
            "outputs": [],
            "stateMutability": "nonpayable",
            "type": "function"
        }
    ],
    "bytecode": "0x60806040526200003360405180606001604052806027815260200162001294602791396200005b60201b6200062e1760201c565b60644442620000439190620001a8565b6200004f919062000245565b600181905550620002ec565b620000fb8160405160240162000072919062000168565b6040516020818303038152906040527f41304fac000000000000000000000000000000000000000000000000000000007bffffffffffffffffffffffffffffffffffffffffffffffffffffffff19166020820180517bffffffffffffffffffffffffffffffffffffffffffffffffffffffff8381831617835250505050620000fe60201b60201c565b50565b60008151905060006a636f6e736f6c652e6c6f679050602083016000808483855afa5050505050565b600062000134826200018c565b62000140818562000197565b9350620001528185602086016200020f565b6200015d81620002db565b840191505092915050565b6000602082019050818103600083015262000184818462000127565b905092915050565b600081519050919050565b600082825260208201905092915050565b6000620001b58262000205565b9150620001c28362000205565b9250827fffffffffffffffffffffffffffffffffffffffffffffffffffffffffffffffff03821115620001fa57620001f96200027d565b5b828201905092915050565b6000819050919050565b60005b838110156200022f57808201518184015260208101905062000212565b838111156200023f576000848401525b50505050565b6000620002528262000205565b91506200025f8362000205565b925082620002725762000271620002ac565b5b828206905092915050565b7f4e487b7100000000000000000000000000000000000000000000000000000000600052601160045260246000fd5b7f4e487b7100000000000000000000000000000000000000000000000000000000600052601260045260246000fd5b6000601f19601f8301169050919050565b610f9880620002fc6000396000f3fe608060405234801561001057600080fd5b50600436106100625760003560e01c80630610a7a214610067578063449d46c0146100975780639a2cdc08146100b3578063a42a4663146100d1578063bd43a90814610101578063ed59313a1461011f575b600080fd5b610081600480360381019061007c9190610948565b61013b565b60405161008e9190610b7e565b60405180910390f35b6100b160048036038101906100ac9190610971565b6101db565b005b6100bb610423565b6040516100c89190610c20565b60405180910390f35b6100eb60048036038101906100e69190610948565b61046e565b6040516100f89190610c20565b60405180910390f35b610109610486565b6040516101169190610b5c565b60405180910390f35b61013960048036038101906101349190610971565b6105d7565b005b6004602052806000526040600020600091509050805461015a90610dfb565b80601f016020809104026020016040519081016040528092919081815260200182805461018690610dfb565b80156101d35780601f106101a8576101008083540402835291602001916101d3565b820191906000526020600020905b8154815290600101906020018083116101b657829003601f168201915b505050505081565b42601e600360003373ffffffffffffffffffffffffffffffffffffffff1673ffffffffffffffffffffffffffffffffffffffff168152602001908152602001600020546102289190610d27565b10610268576040517f08c379a000000000000000000000000000000000000000000000000000000000815260040161025f90610c00565b60405180910390fd5b42600360003373ffffffffffffffffffffffffffffffffffffffff1673ffffffffffffffffffffffffffffffffffffffff1681526020019081526020016000208190555060016000808282546102be9190610d27565b925050819055506103046040518060400160405280600d81526020017f2573206861732077617665642100000000000000000000000000000000000000815250336106c7565b600260405180606001604052803373ffffffffffffffffffffffffffffffffffffffff16815260200183815260200142815250908060018154018082558091505060019003906000526020600020906003020160009091909190915060008201518160000160006101000a81548173ffffffffffffffffffffffffffffffffffffffff021916908373ffffffffffffffffffffffffffffffffffffffff16021790555060208201518160010190805190602001906103c3929190610828565b506040820151816002015550503373ffffffffffffffffffffffffffffffffffffffff167f5f7e16dc676677766a70e9c5628aa6c54ddb8b6e5188e2ae1e1f17f1ffbea7164283604051610418929190610c3b565b60405180910390a250565b60006104666040518060400160405280601781526020017f5765206861766520256420746f74616c20776176657321000000000000000000815250600054610763565b600054905090565b60036020528060005260406000206000915090505481565b60606002805480602002602001604051908101604052809291908181526020016000905b828210156105ce57838290600052602060002090600302016040518060600160405290816000820160009054906101000a900473ffffffffffffffffffffffffffffffffffffffff1673ffffffffffffffffffffffffffffffffffffffff1673ffffffffffffffffffffffffffffffffffffffff16815260200160018201805461053390610dfb565b80601f016020809104026020016040519081016040528092919081815260200182805461055f90610dfb565b80156105ac5780601f10610581576101008083540402835291602001916105ac565b820191906000526020600020905b81548152906001019060200180831161058f57829003601f168201915b50505050508152602001600282015481525050815260200190600101906104aa565b50505050905090565b80600460003373ffffffffffffffffffffffffffffffffffffffff1673ffffffffffffffffffffffffffffffffffffffff168152602001908152602001600020908051906020019061062a929190610828565b5050565b6106c4816040516024016106429190610b7e565b6040516020818303038152906040527f41304fac000000000000000000000000000000000000000000000000000000007bffffffffffffffffffffffffffffffffffffffffffffffffffffffff19166020820180517bffffffffffffffffffffffffffffffffffffffffffffffffffffffff83818316178352505050506107ff565b50565b61075f82826040516024016106dd929190610ba0565b6040516020818303038152906040527f319af333000000000000000000000000000000000000000000000000000000007bffffffffffffffffffffffffffffffffffffffffffffffffffffffff19166020820180517bffffffffffffffffffffffffffffffffffffffffffffffffffffffff83818316178352505050506107ff565b5050565b6107fb8282604051602401610779929190610bd0565b6040516020818303038152906040527f9710a9d0000000000000000000000000000000000000000000000000000000007bffffffffffffffffffffffffffffffffffffffffffffffffffffffff19166020820180517bffffffffffffffffffffffffffffffffffffffffffffffffffffffff83818316178352505050506107ff565b5050565b60008151905060006a636f6e736f6c652e6c6f679050602083016000808483855afa5050505050565b82805461083490610dfb565b90600052602060002090601f016020900481019282610856576000855561089d565b82601f1061086f57805160ff191683800117855561089d565b8280016001018555821561089d579182015b8281111561089c578251825591602001919060010190610881565b5b5090506108aa91906108ae565b5090565b5b808211156108c75760008160009055506001016108af565b5090565b60006108de6108d984610c90565b610c6b565b9050828152602081018484840111156108f657600080fd5b610901848285610db9565b509392505050565b60008135905061091881610f4b565b92915050565b600082601f83011261092f57600080fd5b813561093f8482602086016108cb565b91505092915050565b60006020828403121561095a57600080fd5b600061096884828501610909565b91505092915050565b60006020828403121561098357600080fd5b600082013567ffffffffffffffff81111561099d57600080fd5b6109a98482850161091e565b91505092915050565b60006109be8383610aee565b905092915050565b6109cf81610d7d565b82525050565b6109de81610d7d565b82525050565b60006109ef82610cd1565b6109f98185610cf4565b935083602082028501610a0b85610cc1565b8060005b85811015610a475784840389528151610a2885826109b2565b9450610a3383610ce7565b925060208a01995050600181019050610a0f565b50829750879550505050505092915050565b6000610a6482610cdc565b610a6e8185610d05565b9350610a7e818560208601610dc8565b610a8781610eeb565b840191505092915050565b6000610a9d82610cdc565b610aa78185610d16565b9350610ab7818560208601610dc8565b610ac081610eeb565b840191505092915050565b6000610ad8602983610d16565b9150610ae382610efc565b604082019050919050565b6000606083016000830151610b0660008601826109c6565b5060208301518482036020860152610b1e8282610a59565b9150506040830151610b336040860182610b3e565b508091505092915050565b610b4781610daf565b82525050565b610b5681610daf565b82525050565b60006020820190508181036000830152610b7681846109e4565b905092915050565b60006020820190508181036000830152610b988184610a92565b905092915050565b60006040820190508181036000830152610bba8185610a92565b9050610bc960208301846109d5565b9392505050565b60006040820190508181036000830152610bea8185610a92565b9050610bf96020830184610b4d565b9392505050565b60006020820190508181036000830152610c1981610acb565b9050919050565b6000602082019050610c356000830184610b4d565b92915050565b6000604082019050610c506000830185610b4d565b8181036020830152610c628184610a92565b90509392505050565b6000610c75610c86565b9050610c818282610e2d565b919050565b6000604051905090565b600067ffffffffffffffff821115610cab57610caa610ebc565b5b610cb482610eeb565b9050602081019050919050565b6000819050602082019050919050565b600081519050919050565b600081519050919050565b6000602082019050919050565b600082825260208201905092915050565b600082825260208201905092915050565b600082825260208201905092915050565b6000610d3282610daf565b9150610d3d83610daf565b9250827fffffffffffffffffffffffffffffffffffffffffffffffffffffffffffffffff03821115610d7257610d71610e5e565b5b828201905092915050565b6000610d8882610d8f565b9050919050565b600073ffffffffffffffffffffffffffffffffffffffff82169050919050565b6000819050919050565b82818337600083830152505050565b60005b83811015610de6578082015181840152602081019050610dcb565b83811115610df5576000848401525b50505050565b60006002820490506001821680610e1357607f821691505b60208210811415610e2757610e26610e8d565b5b50919050565b610e3682610eeb565b810181811067ffffffffffffffff82111715610e5557610e54610ebc565b5b80604052505050565b7f4e487b7100000000000000000000000000000000000000000000000000000000600052601160045260246000fd5b7f4e487b7100000000000000000000000000000000000000000000000000000000600052602260045260246000fd5b7f4e487b7100000000000000000000000000000000000000000000000000000000600052604160045260246000fd5b6000601f19601f8301169050919050565b7f4d7573742077616974203330207365636f6e6473206265666f7265207761766960008201527f6e6720616761696e2e0000000000000000000000000000000000000000000000602082015250565b610f5481610d7d565b8114610f5f57600080fd5b5056fea264697066735822122069e463c24bdedc408233d477b9de401ccf9e685dd93f53cc1536cc0cae0650f464736f6c6343000804003357617665506f7274616c20636f6e747261637420636f6e7374727563746f722063616c6c65642e",
    "linkReferences": {},
    "deployedLinkReferences": {}
}